{
  "contractName": "StakePost",
  "abi": [
    {
      "inputs": [],
      "stateMutability": "nonpayable",
      "type": "constructor"
    },
    {
      "anonymous": false,
      "inputs": [
        {
          "indexed": true,
          "internalType": "address",
          "name": "user",
          "type": "address"
        }
      ],
      "name": "Exited",
      "type": "event"
    },
    {
      "anonymous": false,
      "inputs": [
        {
          "indexed": true,
          "internalType": "address",
          "name": "collector",
          "type": "address"
        }
      ],
      "name": "FeeCollectorUpdated",
      "type": "event"
    },
    {
      "anonymous": false,
      "inputs": [
        {
          "indexed": false,
          "internalType": "uint256",
          "name": "fee",
          "type": "uint256"
        }
      ],
      "name": "FeeUpdated",
      "type": "event"
    },
    {
      "anonymous": false,
      "inputs": [
        {
          "indexed": true,
          "internalType": "address",
          "name": "previousOwner",
          "type": "address"
        },
        {
          "indexed": true,
          "internalType": "address",
          "name": "newOwner",
          "type": "address"
        }
      ],
      "name": "OwnershipTransferred",
      "type": "event"
    },
    {
      "anonymous": false,
      "inputs": [
        {
          "indexed": true,
          "internalType": "address",
          "name": "user",
          "type": "address"
        },
        {
          "indexed": false,
          "internalType": "uint256",
          "name": "stake",
          "type": "uint256"
        },
        {
          "indexed": false,
          "internalType": "bytes32",
          "name": "post",
          "type": "bytes32"
        }
      ],
      "name": "StakeAndPost",
      "type": "event"
    },
    {
      "inputs": [],
      "name": "fee",
      "outputs": [
        {
          "internalType": "uint256",
          "name": "",
          "type": "uint256"
        }
      ],
      "stateMutability": "view",
      "type": "function"
    },
    {
      "inputs": [],
      "name": "feeCollector",
      "outputs": [
        {
          "internalType": "address payable",
          "name": "",
          "type": "address"
        }
      ],
      "stateMutability": "view",
      "type": "function"
    },
    {
      "inputs": [],
      "name": "owner",
      "outputs": [
        {
          "internalType": "address",
          "name": "",
          "type": "address"
        }
      ],
      "stateMutability": "view",
      "type": "function"
    },
    {
      "inputs": [
        {
          "internalType": "uint256",
          "name": "",
          "type": "uint256"
        }
      ],
      "name": "posts",
      "outputs": [
        {
          "internalType": "address",
          "name": "user",
          "type": "address"
        },
        {
          "internalType": "uint256",
          "name": "stake",
          "type": "uint256"
        },
        {
          "internalType": "bytes32",
          "name": "post",
          "type": "bytes32"
        },
        {
          "internalType": "uint256",
          "name": "time",
          "type": "uint256"
        }
      ],
      "stateMutability": "view",
      "type": "function"
    },
    {
      "inputs": [],
      "name": "renounceOwnership",
      "outputs": [],
      "stateMutability": "nonpayable",
      "type": "function"
    },
    {
      "inputs": [
        {
          "internalType": "address",
          "name": "newOwner",
          "type": "address"
        }
      ],
      "name": "transferOwnership",
      "outputs": [],
      "stateMutability": "nonpayable",
      "type": "function"
    },
    {
      "inputs": [
        {
          "internalType": "uint256",
          "name": "_fee",
          "type": "uint256"
        }
      ],
      "name": "updateFee",
      "outputs": [],
      "stateMutability": "nonpayable",
      "type": "function"
    },
    {
      "inputs": [
        {
          "internalType": "address payable",
          "name": "_collector",
          "type": "address"
        }
      ],
      "name": "updateFeeCollector",
      "outputs": [],
      "stateMutability": "nonpayable",
      "type": "function"
    },
    {
      "inputs": [
        {
          "internalType": "address",
          "name": "user",
          "type": "address"
        }
      ],
      "name": "getStakepostIndexByUser",
      "outputs": [
        {
          "internalType": "int256",
          "name": "",
          "type": "int256"
        }
      ],
      "stateMutability": "view",
      "type": "function"
    },
    {
      "inputs": [
        {
          "internalType": "bytes32",
          "name": "_postHash",
          "type": "bytes32"
        }
      ],
      "name": "stakeAndPost",
      "outputs": [],
      "stateMutability": "payable",
      "type": "function"
    },
    {
      "inputs": [],
      "name": "exit",
      "outputs": [],
      "stateMutability": "nonpayable",
      "type": "function"
    }
  ],
  "bytecode": "0x60806040523480156200001157600080fd5b506000620000246200010160201b60201c565b9050806000806101000a81548173ffffffffffffffffffffffffffffffffffffffff021916908373ffffffffffffffffffffffffffffffffffffffff1602179055508073ffffffffffffffffffffffffffffffffffffffff16600073ffffffffffffffffffffffffffffffffffffffff167f8be0079c531659141344cd1fd0a4f28419497f9722a3daafe3b4186f6b6457e060405160405180910390a35060018081905550620000db60006200010960201b60201c565b620000fb620000ef6200010160201b60201c565b6200020460201b60201c565b620002d0565b600033905090565b600081101562000181576040517f08c379a00000000000000000000000000000000000000000000000000000000081526004018080602001828103825260178152602001807f5374616b65506f73743a206e656761746976652066656500000000000000000081525060200191505060405180910390fd5b612710811115620001fa576040517f08c379a00000000000000000000000000000000000000000000000000000000081526004018080602001828103825260198152602001807f5374616b65506f73743a20657863656564206d6178206665650000000000000081525060200191505060405180910390fd5b8060028190555050565b600073ffffffffffffffffffffffffffffffffffffffff168173ffffffffffffffffffffffffffffffffffffffff1614156200028c576040517f08c379a000000000000000000000000000000000000000000000000000000000815260040180806020018281038252602181526020018062001b636021913960400191505060405180910390fd5b80600360006101000a81548173ffffffffffffffffffffffffffffffffffffffff021916908373ffffffffffffffffffffffffffffffffffffffff16021790555050565b61188380620002e06000396000f3fe60806040526004361061009c5760003560e01c8063b0773ac811610064578063b0773ac814610208578063c415b95c1461026d578063d2c35ce8146102c4578063ddca3f4314610315578063e9fad8ee14610340578063f2fde38b146103575761009c565b80630b1e7f83146100a1578063518dfde814610131578063715018a61461015f5780638da5cb5b146101765780639012c4a8146101cd575b600080fd5b3480156100ad57600080fd5b506100da600480360360208110156100c457600080fd5b81019080803590602001909291905050506103a8565b604051808573ffffffffffffffffffffffffffffffffffffffff1673ffffffffffffffffffffffffffffffffffffffff16815260200184815260200183815260200182815260200194505050505060405180910390f35b61015d6004803603602081101561014757600080fd5b8101908080359060200190929190505050610405565b005b34801561016b57600080fd5b50610174610707565b005b34801561018257600080fd5b5061018b61088f565b604051808273ffffffffffffffffffffffffffffffffffffffff1673ffffffffffffffffffffffffffffffffffffffff16815260200191505060405180910390f35b3480156101d957600080fd5b50610206600480360360208110156101f057600080fd5b81019080803590602001909291905050506108b8565b005b34801561021457600080fd5b506102576004803603602081101561022b57600080fd5b81019080803573ffffffffffffffffffffffffffffffffffffffff1690602001909291905050506109c4565b6040518082815260200191505060405180910390f35b34801561027957600080fd5b50610282610a8b565b604051808273ffffffffffffffffffffffffffffffffffffffff1673ffffffffffffffffffffffffffffffffffffffff16815260200191505060405180910390f35b3480156102d057600080fd5b50610313600480360360208110156102e757600080fd5b81019080803573ffffffffffffffffffffffffffffffffffffffff169060200190929190505050610ab1565b005b34801561032157600080fd5b5061032a610bc9565b6040518082815260200191505060405180910390f35b34801561034c57600080fd5b50610355610bcf565b005b34801561036357600080fd5b506103a66004803603602081101561037a57600080fd5b81019080803573ffffffffffffffffffffffffffffffffffffffff169060200190929190505050610eaa565b005b600481815481106103b557fe5b90600052602060002090600402016000915090508060000160009054906101000a900473ffffffffffffffffffffffffffffffffffffffff16908060010154908060020154908060030154905084565b6000349050600061041c6104176110b7565b6109c4565b90507fffffffffffffffffffffffffffffffffffffffffffffffffffffffffffffffff81146104b3576040517f08c379a000000000000000000000000000000000000000000000000000000000815260040180806020018281038252601e8152602001807f5374616b65506f73743a207573657220616c7265616479207374616b6564000081525060200191505060405180910390fd5b60008211610529576040517f08c379a00000000000000000000000000000000000000000000000000000000081526004018080602001828103825260188152602001807f5374616b65506f73743a207374616b65206973207a65726f000000000000000081525060200191505060405180910390fd5b600060f81b8360006020811061053b57fe5b1a60f81b7effffffffffffffffffffffffffffffffffffffffffffffffffffffffffffff191614156105d5576040517f08c379a000000000000000000000000000000000000000000000000000000000815260040180806020018281038252601c8152602001807f5374616b65506f73743a20706f73744861736820697320656d7074790000000081525060200191505060405180910390fd5b600460405180608001604052806105ea6110b7565b73ffffffffffffffffffffffffffffffffffffffff16815260200184815260200185815260200142815250908060018154018082558091505060019003906000526020600020906004020160009091909190915060008201518160000160006101000a81548173ffffffffffffffffffffffffffffffffffffffff021916908373ffffffffffffffffffffffffffffffffffffffff16021790555060208201518160010155604082015181600201556060820151816003015550506106ad6110b7565b73ffffffffffffffffffffffffffffffffffffffff167ff0004cfebc6f4914b319113b9eadafc4647d07a6de0ced246c4bed987b9ab8718385604051808381526020018281526020019250505060405180910390a2505050565b61070f6110b7565b73ffffffffffffffffffffffffffffffffffffffff166000809054906101000a900473ffffffffffffffffffffffffffffffffffffffff1673ffffffffffffffffffffffffffffffffffffffff16146107d0576040517f08c379a00000000000000000000000000000000000000000000000000000000081526004018080602001828103825260208152602001807f4f776e61626c653a2063616c6c6572206973206e6f7420746865206f776e657281525060200191505060405180910390fd5b600073ffffffffffffffffffffffffffffffffffffffff166000809054906101000a900473ffffffffffffffffffffffffffffffffffffffff1673ffffffffffffffffffffffffffffffffffffffff167f8be0079c531659141344cd1fd0a4f28419497f9722a3daafe3b4186f6b6457e060405160405180910390a360008060006101000a81548173ffffffffffffffffffffffffffffffffffffffff021916908373ffffffffffffffffffffffffffffffffffffffff160217905550565b60008060009054906101000a900473ffffffffffffffffffffffffffffffffffffffff16905090565b6108c06110b7565b73ffffffffffffffffffffffffffffffffffffffff166000809054906101000a900473ffffffffffffffffffffffffffffffffffffffff1673ffffffffffffffffffffffffffffffffffffffff1614610981576040517f08c379a00000000000000000000000000000000000000000000000000000000081526004018080602001828103825260208152602001807f4f776e61626c653a2063616c6c6572206973206e6f7420746865206f776e657281525060200191505060405180910390fd5b61098a816110bf565b7f8c4d35e54a3f2ef1134138fd8ea3daee6a3c89e10d2665996babdf70261e2c76816040518082815260200191505060405180910390a150565b600080600090505b600480549050811015610a61578273ffffffffffffffffffffffffffffffffffffffff16600482815481106109fd57fe5b906000526020600020906004020160000160009054906101000a900473ffffffffffffffffffffffffffffffffffffffff1673ffffffffffffffffffffffffffffffffffffffff161415610a545780915050610a86565b80806001019150506109cc565b507fffffffffffffffffffffffffffffffffffffffffffffffffffffffffffffffff90505b919050565b600360009054906101000a900473ffffffffffffffffffffffffffffffffffffffff1681565b610ab96110b7565b73ffffffffffffffffffffffffffffffffffffffff166000809054906101000a900473ffffffffffffffffffffffffffffffffffffffff1673ffffffffffffffffffffffffffffffffffffffff1614610b7a576040517f08c379a00000000000000000000000000000000000000000000000000000000081526004018080602001828103825260208152602001807f4f776e61626c653a2063616c6c6572206973206e6f7420746865206f776e657281525060200191505060405180910390fd5b610b83816111b8565b8073ffffffffffffffffffffffffffffffffffffffff167fe5693914d19c789bdee50a362998c0bc8d035a835f9871da5d51152f0582c34f60405160405180910390a250565b60025481565b60026001541415610c48576040517f08c379a000000000000000000000000000000000000000000000000000000000815260040180806020018281038252601f8152602001807f5265656e7472616e637947756172643a207265656e7472616e742063616c6c0081525060200191505060405180910390fd5b60026001819055506000610c5a6110b7565b90506000610c6e610c696110b7565b6109c4565b90507fffffffffffffffffffffffffffffffffffffffffffffffffffffffffffffffff8113610d05576040517f08c379a000000000000000000000000000000000000000000000000000000000815260040180806020018281038252601f8152602001807f5374616b65506f73743a20706f737420646f6573206e6f74206578697374730081525060200191505060405180910390fd5b600060048281548110610d1457fe5b9060005260206000209060040201905042611c208260030154011115610d85576040517f08c379a000000000000000000000000000000000000000000000000000000000815260040180806020018281038252602381526020018061182b6023913960400191505060405180910390fd5b60008160010154905060006002541115610e28576000610dc4612710610db66002548561128290919063ffffffff16565b61130890919063ffffffff16565b9050610dd9818361135290919063ffffffff16565b9150610e2681600360009054906101000a900473ffffffffffffffffffffffffffffffffffffffff1673ffffffffffffffffffffffffffffffffffffffff1661139c90919063ffffffff16565b505b610e51818573ffffffffffffffffffffffffffffffffffffffff1661139c90919063ffffffff16565b610e5a836114d6565b8373ffffffffffffffffffffffffffffffffffffffff167faa5cfc974bd759f818e3e18a4afc9d79daaa0722158497792100a1fddd13e19360405160405180910390a25050505060018081905550565b610eb26110b7565b73ffffffffffffffffffffffffffffffffffffffff166000809054906101000a900473ffffffffffffffffffffffffffffffffffffffff1673ffffffffffffffffffffffffffffffffffffffff1614610f73576040517f08c379a00000000000000000000000000000000000000000000000000000000081526004018080602001828103825260208152602001807f4f776e61626c653a2063616c6c6572206973206e6f7420746865206f776e657281525060200191505060405180910390fd5b600073ffffffffffffffffffffffffffffffffffffffff168173ffffffffffffffffffffffffffffffffffffffff161415610ff9576040517f08c379a00000000000000000000000000000000000000000000000000000000081526004018080602001828103825260268152602001806117896026913960400191505060405180910390fd5b8073ffffffffffffffffffffffffffffffffffffffff166000809054906101000a900473ffffffffffffffffffffffffffffffffffffffff1673ffffffffffffffffffffffffffffffffffffffff167f8be0079c531659141344cd1fd0a4f28419497f9722a3daafe3b4186f6b6457e060405160405180910390a3806000806101000a81548173ffffffffffffffffffffffffffffffffffffffff021916908373ffffffffffffffffffffffffffffffffffffffff16021790555050565b600033905090565b6000811015611136576040517f08c379a00000000000000000000000000000000000000000000000000000000081526004018080602001828103825260178152602001807f5374616b65506f73743a206e656761746976652066656500000000000000000081525060200191505060405180910390fd5b6127108111156111ae576040517f08c379a00000000000000000000000000000000000000000000000000000000081526004018080602001828103825260198152602001807f5374616b65506f73743a20657863656564206d6178206665650000000000000081525060200191505060405180910390fd5b8060028190555050565b600073ffffffffffffffffffffffffffffffffffffffff168173ffffffffffffffffffffffffffffffffffffffff16141561123e576040517f08c379a000000000000000000000000000000000000000000000000000000000815260040180806020018281038252602181526020018061180a6021913960400191505060405180910390fd5b80600360006101000a81548173ffffffffffffffffffffffffffffffffffffffff021916908373ffffffffffffffffffffffffffffffffffffffff16021790555050565b6000808314156112955760009050611302565b60008284029050828482816112a657fe5b04146112fd576040517f08c379a00000000000000000000000000000000000000000000000000000000081526004018080602001828103825260218152602001806117e96021913960400191505060405180910390fd5b809150505b92915050565b600061134a83836040518060400160405280601a81526020017f536166654d6174683a206469766973696f6e206279207a65726f000000000000815250611602565b905092915050565b600061139483836040518060400160405280601e81526020017f536166654d6174683a207375627472616374696f6e206f766572666c6f7700008152506116c8565b905092915050565b80471015611412576040517f08c379a000000000000000000000000000000000000000000000000000000000815260040180806020018281038252601d8152602001807f416464726573733a20696e73756666696369656e742062616c616e636500000081525060200191505060405180910390fd5b60008273ffffffffffffffffffffffffffffffffffffffff168260405180600001905060006040518083038185875af1925050503d8060008114611472576040519150601f19603f3d011682016040523d82523d6000602084013e611477565b606091505b50509050806114d1576040517f08c379a000000000000000000000000000000000000000000000000000000000815260040180806020018281038252603a8152602001806117af603a913960400191505060405180910390fd5b505050565b6004600160048054905003815481106114eb57fe5b90600052602060002090600402016004828154811061150657fe5b90600052602060002090600402016000820160009054906101000a900473ffffffffffffffffffffffffffffffffffffffff168160000160006101000a81548173ffffffffffffffffffffffffffffffffffffffff021916908373ffffffffffffffffffffffffffffffffffffffff16021790555060018201548160010155600282015481600201556003820154816003015590505060048054806115a757fe5b6001900381819060005260206000209060040201600080820160006101000a81549073ffffffffffffffffffffffffffffffffffffffff02191690556001820160009055600282016000905560038201600090555050905550565b600080831182906116ae576040517f08c379a00000000000000000000000000000000000000000000000000000000081526004018080602001828103825283818151815260200191508051906020019080838360005b83811015611673578082015181840152602081019050611658565b50505050905090810190601f1680156116a05780820380516001836020036101000a031916815260200191505b509250505060405180910390fd5b5060008385816116ba57fe5b049050809150509392505050565b6000838311158290611775576040517f08c379a00000000000000000000000000000000000000000000000000000000081526004018080602001828103825283818151815260200191508051906020019080838360005b8381101561173a57808201518184015260208101905061171f565b50505050905090810190601f1680156117675780820380516001836020036101000a031916815260200191505b509250505060405180910390fd5b506000838503905080915050939250505056fe4f776e61626c653a206e6577206f776e657220697320746865207a65726f2061646472657373416464726573733a20756e61626c6520746f2073656e642076616c75652c20726563697069656e74206d61792068617665207265766572746564536166654d6174683a206d756c7469706c69636174696f6e206f766572666c6f775374616b65506f73743a207a65726f20636f6c6c6563746f7220616464726573735374616b65506f73743a2065786974206e6f7420616c6c6f7765642062792074696d65a26469706673582212205fbfebef6aafc784350dd0337962f9d685e9b2677f43d16f24b5c7989729bd2064736f6c634300060800335374616b65506f73743a207a65726f20636f6c6c6563746f722061646472657373",
  "immutableReferences": {},
  "source": "// SPDX-License-Identifier: MIT\npragma solidity ^0.6.8;\n\nimport \"@openzeppelin/contracts/GSN/Context.sol\";\nimport \"@openzeppelin/contracts/math/SafeMath.sol\";\nimport \"@openzeppelin/contracts/utils/Address.sol\";\nimport \"@openzeppelin/contracts/access/Ownable.sol\";\nimport \"@openzeppelin/contracts/utils/ReentrancyGuard.sol\";\n\ncontract StakePost is Context, Ownable, ReentrancyGuard {\n    using SafeMath for uint256;\n    using Address for address payable;\n\n    uint256 public fee; //% in basis points\n    address payable public feeCollector;\n\n    struct Stakepost {\n        address user;\n        uint256 stake;\n        bytes32 post;\n        uint256 time;\n    }\n\n    Stakepost[] public posts;\n\n    event StakeAndPost(address indexed user, uint256 stake, bytes32 post);\n    event Exited(address indexed user);\n\n    event FeeUpdated(uint256 fee);\n    event FeeCollectorUpdated(address indexed collector);\n\n    constructor() public {\n        _setFee(0);\n        _setFeeCollector(_msgSender());\n    }\n\n    function updateFee(uint256 _fee) public onlyOwner {\n        _setFee(_fee);\n        emit FeeUpdated(_fee);\n    }\n\n    function updateFeeCollector(address payable _collector) public onlyOwner {\n        _setFeeCollector(_collector);\n        emit FeeCollectorUpdated(_collector);\n    }\n\n    function getStakepostIndexByUser(address user)\n        public\n        view\n        returns (int256)\n    {\n        for (uint256 i = 0; i < posts.length; i++) {\n            if (posts[i].user == user) {\n                return int256(i);\n            }\n        }\n        return -1;\n    }\n\n    function stakeAndPost(bytes32 _postHash) public payable {\n        uint256 stake = msg.value;\n\n        int256 index = getStakepostIndexByUser(_msgSender());\n\n        require(index == -1, \"StakePost: user already staked\");\n        require(stake > 0, \"StakePost: stake is zero\");\n        require(_postHash[0] != 0, \"StakePost: postHash is empty\");\n\n        posts.push(Stakepost(_msgSender(), stake, _postHash, block.timestamp));\n\n        emit StakeAndPost(_msgSender(), stake, _postHash);\n    }\n\n    function exit() public nonReentrant {\n        address payable user = _msgSender();\n\n        int256 index = getStakepostIndexByUser(_msgSender());\n\n        require(index > -1, \"StakePost: post does not exists\");\n\n        Stakepost storage post = posts[uint256(index)];\n\n        require(\n            post.time + 2 hours <= block.timestamp,\n            \"StakePost: exit not allowed by time\"\n        );\n\n        uint256 returnValue = post.stake;\n\n        if (fee > 0) {\n            uint256 feeAmount = returnValue.mul(fee).div(1e4);\n            returnValue = returnValue.sub(feeAmount);\n            feeCollector.sendValue(feeAmount);\n        }\n\n        user.sendValue(returnValue);\n\n        _deletePostAtIndex(uint256(index));\n\n        emit Exited(user);\n    }\n\n    function _setFee(uint256 _fee) private {\n        require(_fee >= 0, \"StakePost: negative fee\");\n        require(_fee <= 1e4, \"StakePost: exceed max fee\");\n        fee = _fee;\n    }\n\n    function _setFeeCollector(address payable _collector) private {\n        require(_collector != address(0), \"StakePost: zero collector address\");\n        feeCollector = _collector;\n    }\n\n    function _deletePostAtIndex(uint256 index) private {\n        posts[index] = posts[posts.length - 1];\n        posts.pop();\n    }\n}\n",
  "sourcePath": "/home/myx0m0p/Projects/Stakepost/Contracts/contracts/StakePost.sol",
  "compiler": {
    "name": "solc",
    "version": "0.6.8+commit.0bbfe453.Emscripten.clang"
  },
  "schemaVersion": "3.3.3",
  "updatedAt": "2021-01-10T14:19:25.862Z",
  "devdoc": {
    "methods": {
      "owner()": {
        "details": "Returns the address of the current owner."
      },
      "renounceOwnership()": {
        "details": "Leaves the contract without owner. It will not be possible to call `onlyOwner` functions anymore. Can only be called by the current owner.     * NOTE: Renouncing ownership will leave the contract without an owner, thereby removing any functionality that is only available to the owner."
      },
      "transferOwnership(address)": {
        "details": "Transfers ownership of the contract to a new account (`newOwner`). Can only be called by the current owner."
      }
    }
  },
  "userdoc": {
    "methods": {}
  }
}